{
  "contractName": "CoinToss",
  "abi": [
    {
      "inputs": [],
      "stateMutability": "payable",
      "type": "constructor",
      "payable": true
    },
    {
      "anonymous": false,
      "inputs": [
        {
          "indexed": false,
          "internalType": "string",
          "name": "decision",
          "type": "string"
        },
        {
          "indexed": false,
          "internalType": "uint256",
          "name": "amount",
          "type": "uint256"
        }
      ],
      "name": "paymentEvent",
      "type": "event"
    },
    {
      "inputs": [],
      "name": "sendMoney",
      "outputs": [],
      "stateMutability": "payable",
      "type": "function",
      "payable": true
    },
    {
      "inputs": [],
      "name": "treasury",
      "outputs": [
        {
          "internalType": "uint256",
          "name": "",
          "type": "uint256"
        }
      ],
      "stateMutability": "view",
      "type": "function",
      "constant": true
    }
  ],
  "bytecode": "0x60806040526106bc806100136000396000f3fe6080604052600436106100295760003560e01c806361d027b31461002e578063cbedbf5a14610059575b600080fd5b34801561003a57600080fd5b50610043610063565b6040516100509190610241565b60405180910390f35b61006161006b565b005b600047905090565b4734106100ad576040517f08c379a00000000000000000000000000000000000000000000000000000000081526004016100a4906102df565b60405180910390fd5b60006100b7610174565b90506000811480156100d557506002346100d1919061032e565b4710155b15610138576100f06002346100ea919061032e565b336101dd565b7fb3d91272eaaf7e9c1340493ed663b17c454677d289e1c86e1105b838f9a6946160023461011e919061032e565b60405161012b91906103fa565b60405180910390a1610171565b7fb3d91272eaaf7e9c1340493ed663b17c454677d289e1c86e1105b838f9a69461600060405161016891906104b9565b60405180910390a15b50565b60008060016065434244336040516020016101929493929190610582565b6040516020818303038152906040528051906020012060001c6101b591906105ff565b6101bf9190610630565b905060318110156101d45760009150506101da565b60019150505b90565b8073ffffffffffffffffffffffffffffffffffffffff166108fc839081150290604051600060405180830381858888f19350505050158015610223573d6000803e3d6000fd5b505050565b6000819050919050565b61023b81610228565b82525050565b60006020820190506102566000830184610232565b92915050565b600082825260208201905092915050565b7f52756c6520312e20416d6f756e742063616e6e6f74206265206772656174657260008201527f207468616e2074726561737572792062616c616e636500000000000000000000602082015250565b60006102c960368361025c565b91506102d48261026d565b604082019050919050565b600060208201905081810360008301526102f8816102bc565b9050919050565b7f4e487b7100000000000000000000000000000000000000000000000000000000600052601160045260246000fd5b600061033982610228565b915061034483610228565b9250817fffffffffffffffffffffffffffffffffffffffffffffffffffffffffffffffff048311821515161561037d5761037c6102ff565b5b828202905092915050565b7f506179696e67205573657220446f75626c65206f662053656e7420437279707460008201527f6f00000000000000000000000000000000000000000000000000000000000000602082015250565b60006103e460218361025c565b91506103ef82610388565b604082019050919050565b60006040820190508181036000830152610413816103d7565b90506104226020830184610232565b92915050565b7f506179696e67204e6f7468696e6720746f205468652055736572000000000000600082015250565b600061045e601a8361025c565b915061046982610428565b602082019050919050565b6000819050919050565b6000819050919050565b60006104a361049e61049984610474565b61047e565b610228565b9050919050565b6104b381610488565b82525050565b600060408201905081810360008301526104d281610451565b90506104e160208301846104aa565b92915050565b6000819050919050565b6105026104fd82610228565b6104e7565b82525050565b600073ffffffffffffffffffffffffffffffffffffffff82169050919050565b600061053382610508565b9050919050565b60008160601b9050919050565b60006105528261053a565b9050919050565b600061056482610547565b9050919050565b61057c61057782610528565b610559565b82525050565b600061058e82876104f1565b60208201915061059e82866104f1565b6020820191506105ae82856104f1565b6020820191506105be828461056b565b60148201915081905095945050505050565b7f4e487b7100000000000000000000000000000000000000000000000000000000600052601260045260246000fd5b600061060a82610228565b915061061583610228565b925082610625576106246105d0565b5b828206905092915050565b600061063b82610228565b915061064683610228565b9250827fffffffffffffffffffffffffffffffffffffffffffffffffffffffffffffffff0382111561067b5761067a6102ff565b5b82820190509291505056fea2646970667358221220348cd8aab074f944c578b010e5a1399295c0a752e4faa9b0bff6c0d75de9ec1464736f6c634300080f0033",
  "immutableReferences": {},
  "source": "// SPDX-License-Identifier: UNLICENSED\r\npragma solidity ^0.8.0;\r\n\r\ncontract CoinToss {\r\n\r\n    constructor () public payable {\r\n        //  This is to enable contract admin send some crypto during deployment before any user can use the contract,\r\n        //  to avoid always having to revert the transaction if the first rule of the game is not satisfied.\r\n    }\r\n\r\n\r\n    //  PAYMENT OPTIONS\r\n    //  1. Pay the user nothing\r\n    //  2. Pay the user double of amount sent\r\n    \r\n\r\n    //  Payment probabilities\r\n    //  Pay user double = 49.9% and below, payUserDouble = 50.1% and above\r\n\r\n   //   CummulativeProbability = [49, 100] --> [49.9%, 49.9+50.1 %] ,removing the denominator to create a non floating number \r\n   event paymentEvent(\r\n       string decision,\r\n       uint amount\r\n   );\r\n\r\n    function determinePaymentOption() internal view returns(uint){\r\n        //  Creating some randomness\r\n        uint256 randNum = (uint256(\r\n            keccak256(\r\n                abi.encodePacked(\r\n                    block.number,\r\n                    block.timestamp,\r\n                    block.difficulty,\r\n                    msg.sender)\r\n                )\r\n            ) % 101) + 1;  //  ensure we have a number within 1-100 (bounds inclusive)\r\n\r\n        // skewing the payment towards not paying any amount.\r\n        if(randNum < 49){\r\n            return 0; // return 0 to pay user Double\r\n        } else{\r\n            return 1; // return 1  to pay user Nothing\r\n        }\r\n    }\r\n\r\n    function payUser(uint _amount, address _userAddress) internal {\r\n        payable(_userAddress).transfer(_amount);\r\n    }\r\n\r\n    function sendMoney() public payable {\r\n        require(msg.value < address(this).balance, \"Rule 1. Amount cannot be greater than treasury balance\");\r\n        uint paymentDecision = determinePaymentOption();\r\n        if (paymentDecision == 0 && address(this).balance >= msg.value*2){ //   Ensure the treasury has enough balance to pay user double of amount sent\r\n            payUser(msg.value*2, msg.sender);\r\n            emit paymentEvent(\"Paying User Double of Sent Crypto\", msg.value *2);\r\n        }else{\r\n            emit paymentEvent(\"Paying Nothing to The User\", 0);\r\n        }\r\n    }\r\n\r\n    function treasury() public view returns(uint){ //   Returns current treasury balance\r\n        return address(this).balance;\r\n    }\r\n}",
  "sourcePath": "C:\\Users\\boss\\Desktop\\coin-toss\\contracts\\CoinToss.sol",
  "compiler": {
    "name": "solc",
    "version": "0.8.15+commit.e14f2714.Emscripten.clang"
  },
  "schemaVersion": "3.4.8",
  "updatedAt": "2022-10-21T14:56:12.671Z",
  "networkType": "ethereum",
  "devdoc": {
    "kind": "dev",
    "methods": {},
    "version": 1
  },
  "userdoc": {
    "kind": "user",
    "methods": {},
    "version": 1
  }
}